:020000040800F2
:1000000040B50020450100082D3A0008253A0008B7
:10001000293A0008A7030008B547000800000000BF
:100020000000000000000000000000003543000850
:10003000B10C000800000000293F00083743000809
:100040005F0100085F0100085F010008B14000087F
:100050005F0100085F010008E70C0008250D00089B
:100060002F0D0008390D0008430D00085F0100083E
:100070005F0100085F0100085F0100085F010008E0
:100080005F0100085F0100085F0100085F010008D0
:10009000194700085F0100085F0100084D0D0008C6
:1000A0005F0100085F0100085F0100085F010008B0
:1000B0005F0100085F0100085F0100085F010008A0
:1000C0005F0100085F0100085F0100085F01000890
:1000D0005F010008094700085F0100085F01000890
:1000E000F10C00085F0100085F0100085F010008D3
:1000F0005F0100085F0100085F0100085F01000860
:100100005F0100085F0100085F0100085F0100084F
:100110005F0100085F0100085F0100085F0100083F
:100120005F0100085F0100085F0100085F0100082F
:10013000DFF80CD000F08CF800480047E5770008A5
:1001400040B500200648804706480047FEE7FEE726
:10015000FEE7FEE7FEE7FEE7FEE7FEE7FEE7FEE777
:10016000A1430008310100082DE9F05F0546002099
:1001700092469B4688460646814640241BE0284618
:1001800041464746224600F02FF853465A46C01AC9
:10019000914110D311461846224600F016F82D1A48
:1001A00067EB01084F4622460120002100F00DF8C0
:1001B00017EB00094E41201EA4F10104DFDC484684
:1001C00031462A464346BDE8F09F202A04DB203A08
:1001D00000FA02F1002070479140C2F1200320FA9A
:1001E00003F3194390407047202A04DB203A21FA98
:1001F00002F00021704721FA02F3D040C2F1200240
:10020000914008431946704740EA01039B0703D019
:1002100009E008C9121F08C0042AFAD203E011F845
:10022000013B00F8013B521EF9D27047D2B201E007
:1002300000F8012B491EFBD270470022F6E710B5EB
:1002400013460A4604461946FFF7F0FF204610BD44
:10025000064C074D06E0E06840F0010394E8070013
:1002600098471034AC42F6D3FFF766FF18990008A0
:100270003899000870B58C1810F8015B15F0070369
:1002800001D110F8013B2A1106D110F8012B03E02F
:1002900010F8016B01F8016B5B1EF9D12B0705D437
:1002A0000023521E0DD401F8013BFAE710F8013B80
:1002B000CB1A921C03E013F8015B01F8015B521E9C
:1002C000F9D5A142D8D3002070BD10B502465368BD
:1002D000581C50609068C154D3685068B0FBF3F468
:1002E00003FB14005060D2E90030984209D1106835
:1002F000401C1060D3681068B0FBF3F403FB1400DB
:100300001060012010BDF0B507460D4616460024CA
:1003100000BF04E0295D3846FFF7D7FF641CB442F4
:10032000F8D30120F0BD014608784A7800EB02209E
:1003300080B27047014608784A7800EB02208A783C
:1003400000EB0240CA7800EB0260704730B502460D
:10035000107800245178230243EA11630D022146EC
:1003600044194B4190780021090441EA10410004EE
:1003700024184B41D0780021090641EA10210006DB
:10038000241859411079231C414150791B1C41EB21
:10039000002091791B1C40EB0140D1791B1C40EBE4
:1003A0000161184630BD00BFFEE700002DE9F041B5
:1003B00004460F4618260025B74202D20020BDE8A9
:1003C000F081FE2228466D1C225428466D1C2654BE
:1003D000C6F3072228466D1C2254B12228466D1C04
:1003E00022542748027D28466D1C22542448808AC6
:1003F000021228466D1C22542148827D28466D1C1D
:1004000022541F48C08A021228466D1C2254002222
:1004100028466D1C225428466D1C225428466D1C0B
:10042000225428466D1C225428466D1C225428460E
:100430006D1C225428466D1C225428466D1C2254E3
:1004400028466D1C225428466D1C225428466D1CDB
:10045000225428466D1C225428466D1C22542846DE
:100460006D1C2254F11E601C01F0F8F829466D1C29
:100470006054BE2228466D1C225428469FE7000087
:10048000FC0F00202DE9F04104460F460A26002506
:10049000B74202D20020BDE8F081FE2228466D1C42
:1004A000225428466D1C2654C6F3072228466D1C8C
:1004B0002254B22228466D1C22541148027D28463F
:1004C0006D1C22540E48808A021228466D1C22544C
:1004D0000B48827D28466D1C22540948C08A0212AE
:1004E00028466D1C2254F11E601C01F0B7F8294605
:1004F0006D1C6054BE2228466D1C22542846CAE753
:10050000FC0F00203EB500210022847EC57E44EA17
:100510000523047A457A44EA0524ADF80040847A3C
:10052000C57A44EA0524ADF80240047B457B44EAE1
:100530000524ADF80440847BC57B44EA0524ADF86E
:100540000640047C457C44EA0524ADF80840847CE0
:10055000C57C44EA0524ADF80A4000BF0AE03DF836
:100560001150084C34F81140A54201D1521C00E052
:1005700000BF491C0629F2D3062A02D1014CA41E51
:10058000E3823EBDFE0F00202DE9F04104460F46F8
:100590000A260025B74202D20020BDE8F081FE22E3
:1005A00028466D1C225428466D1C2654C6F307228B
:1005B00028466D1C2254A42228466D1C2254114842
:1005C000027D28466D1C22540E48808A021228465D
:1005D0006D1C22540B48827D28466D1C225409480C
:1005E000C08A021228466D1C2254F11E601C01F0C4
:1005F00035F829466D1C6054BE2228466D1C2254D5
:100600002846CAE7FC0F00202DE9F04104460F46BA
:1006100020260025B74202D20020BDE8F081FE224C
:1006200028466D1C225428466D1C2654C6F307220A
:1006300028466D1C2254B12228466D1C225449487C
:10064000027D28466D1C22544648808A02122846A4
:100650006D1C22544348827D28466D1C225441481B
:10066000C08A021228466D1C22543E4882782846D1
:100670006D1C22543B484088020A28466D1C2254B7
:100680003848027928466D1C225436488088020A70
:1006900028466D1C22543348827928466D1C22540A
:1006A0003048C088020A28466D1C22542D48027A20
:1006B00028466D1C22542B480089020A28466D1CCE
:1006C00022542848827A28466D1C225425484089A5
:1006D000020A28466D1C22542248027B28466D1CC3
:1006E000225420488089020A28466D1C22541D4845
:1006F000827B28466D1C22541A48C089020A28466B
:100700006D1C22541748027C28466D1C2254154843
:10071000827C28466D1C2254002228466D1C2254DF
:1007200028466D1C22540F48827D28466D1C225499
:100730000C48C08A021228466D1C2254002228460A
:100740006D1C225428466D1C2254F11E601C00F0C2
:1007500085FF29466D1C6054BE2228466D1C22541C
:1007600028465AE7FC0F00202DE9F04104460F46C9
:100770000A260025B74202D20020BDE8F081FE2201
:1007800028466D1C225428466D1C2654C6F30722A9
:1007900028466D1C2254832228466D1C2254114881
:1007A000027D28466D1C22540E48808A021228467B
:1007B0006D1C22540B48827D28466D1C225409482A
:1007C000C08A021228466D1C2254F11E601C00F0E3
:1007D00045FF29466D1C6054BE2228466D1C2254DC
:1007E0002846CAE7FC0F002070B58EB00025002611
:1007F00000200390049005A92E4807F04FFBD8B1C4
:10080000761C0A20B6FBF0F100FB116018B90A2033
:1008100001F0FCFB00260598B0F5A06F06D10CA9ED
:100820002548099AFFF76FFD002004E023A00599F1
:1008300003F0CAFF00BF03E000260A2001F0E6FB38
:1008400000234FF4006225491B4803F0E8FC0546ED
:100850002DB901F051FF224908600EB070BD2A4643
:100860001E4901A804F01AFBDDE90101CDE90301ED
:100870009DF80C0040B11048049900F01AFA01F0FC
:100880003BFF1749086013E001F036FF144909687F
:10089000441A002C01DD204600E06042B0F57A7F6A
:1008A00006DD044807F02EFA01F026FF0C49086027
:1008B00000BFD2E78C0000200C2100205374644953
:1008C000445B3078253033585D206973206E6F208B
:1008D000737570706F7274210A0000001C2900206B
:1008E000C80300202DE9F04104460F460A260025E2
:1008F000B74202D20020BDE8F081FE2228466D1CDE
:10090000225428466D1C2654C6F3072228466D1C27
:100910002254812228466D1C22541148027D28460B
:100920006D1C22540E48808A021228466D1C2254E7
:100930000B48827D28466D1C22540948C08A021249
:1009400028466D1C2254F11E601C00F087FE2946CB
:100950006D1C6054BE2228466D1C22542846CAE7EE
:10096000FC0F00202DE9F04104460F4690460D266D
:100970000025B74202D20020BDE8F081FE222846C1
:100980006D1C225428466D1C2654C6F307222946A6
:100990006D1C6254822228466D1C22541848027D28
:1009A00028466D1C22541648808A021228466D1C67
:1009B00022541348827D28466D1C22541048C08A58
:1009C000021228466D1C22540E48027828466D1CDF
:1009D00022540C480088021228466D1C22542846D6
:1009E0006D1C04F80080F11E601C00F037FE2946E3
:1009F0006D1C6054BE2228466D1C22542846BBE75D
:100A0000FC0F0020C40300202DE9F04104460F46EE
:100A10000A260025B74202D20020BDE8F081FE225E
:100A200028466D1C225428466D1C2654C6F3072206
:100A300028466D1C2254A52228466D1C22541148BC
:100A4000027D28466D1C22540E48808A02122846D8
:100A50006D1C22540B48827D28466D1C2254094887
:100A6000C08A021228466D1C2254F11E601C00F040
:100A7000F5FD29466D1C6054BE2228466D1C22548B
:100A80002846CAE7FC0F00202DE9F04104460F4636
:100A900012260025B74202D20020BDE8F081FE22D6
:100AA00028466D1C225428466D1C2654C6F3072286
:100AB00028466D1C2254A12228466D1C22541E4833
:100AC000027D28466D1C22541B48808A021228464B
:100AD0006D1C22541848827D28466D1C22541648ED
:100AE000C08A021228466D1C2254002228466D1C22
:100AF000225428466D1C225428466D1C2254284638
:100B00006D1C225428466D1C225428466D1C22540C
:100B100028466D1C225428466D1C2254F11E601C70
:100B200000F09CFD29466D1C6054BE2228466D1CB9
:100B300022542846B1E70000FC0F002010B543788E
:100B4000847843EA0421002210BD00002DE9F04121
:100B500004460F460A260025B74202D20020BDE80F
:100B6000F081FE2228466D1C225428466D1C265416
:100B7000C6F3072228466D1C2254A32228466D1C6A
:100B800022541148027D28466D1C22540E48808A4A
:100B9000021228466D1C22540B48827D28466D1C8B
:100BA00022540948C08A021228466D1C2254F11EA4
:100BB000601C00F053FD29466D1C6054BE2228467F
:100BC0006D1C22542846CAE7FC0F00202DE9F04195
:100BD00004460F460A260025B74202D20020BDE88F
:100BE000F081FE2228466D1C225428466D1C265496
:100BF000C6F3072228466D1C2254A22228466D1CEB
:100C000022541148027D28466D1C22540E48808AC9
:100C1000021228466D1C22540B48827D28466D1C0A
:100C200022540948C08A021228466D1C2254F11E23
:100C3000601C00F013FD29466D1C6054BE2228463E
:100C40006D1C22542846CAE7FC0F002010B54FF453
:100C500080620449044803F023FB044807F052F87B
:100C600010BD00001C2100200C2100208C00002061
:100C700001460868C0430860086870474FF0FF31BC
:100C80000160704730B5002300BF0BE011F8014B45
:100C900005786C40054D55F82440056884EA152414
:100CA00004605B1C9342F1D330BD0000D8030020E8
:100CB000704770B504460D460026204600F00FFC34
:100CC0000646B54201D2284600E030460546206877
:100CD00028442060E1682068B0FBF1F201FB1200BB
:100CE0002060284670BD10B5012001F04DFB10BDFD
:100CF00010B54FF4806001F047FB4FF4006001F045
:100D000043FB4FF4805001F03FFB4FF4005001F0E3
:100D10003BFB4FF4804001F037FB4FF4004001F003
:100D200033FB10BD10B5022001F02EFB10BD10B535
:100D3000042001F029FB10BD10B5082001F024FBB0
:100D400010BD10B5102001F01FFB10BD10B5202004
:100D500001F01AFB402001F017FB802001F014FB8A
:100D60004FF4807001F010FB4FF4007001F00CFBA9
:100D700010BD00000021074AD1610749096941F00F
:100D80000401054A11611146096941F040011161F0
:100D90007047000020310020002002402DE9F0477C
:100DA000044600254FF6FF763746B046B14600F0C0
:100DB000F5F80443E6B2C4F30727C4F307484FEA43
:100DC00014694CF2503000F0E3F90546002D4FD184
:100DD0002949C86101F086F90546002D48D1274808
:100DE000006940F0100025490861FF2E09D0244811
:100DF00000883043224908804CF2503000F0C8F996
:100E000005466DB9FF2F0BD01D48801C0088384364
:100E10001B49891C08804CF2503000F0B9F9054696
:100E20007DB9B8F1FF0F0CD01548001D008840EACD
:100E300008001349091D08804CF2503000F0A8F951
:100E400005467DB9B9F1FF0F0CD00D48801D008813
:100E500040EA09000A49891D08804CF2503000F030
:100E600097F905460548006920F01000034908611C
:100E70002846BDE8F0870000203100200020024015
:100E800008F8FF1F2DE9F047044600254FF6FF76CE
:100E90003746B046B14600F081F8C0432043C44312
:100EA000E6B2C4F30727C4F307484FEA14694CF2CB
:100EB000503000F06DF90546002D4FD12949C86129
:100EC00001F010F90546002D48D12748006940F08F
:100ED000100025490861FF2E09D0244800883040C1
:100EE000224908804CF2503000F052F905466DB9A5
:100EF000FF2F0BD01D48801C008838401B49891CDF
:100F000008804CF2503000F043F905467DB9B8F145
:100F1000FF0F0CD01548001D008800EA0800134997
:100F2000091D08804CF2503000F032F905467DB9B9
:100F3000B9F1FF0F0CD00D48801D008800EA0900B0
:100F40000A49891D08804CF2503000F021F905460D
:100F50000548006920F01000034908612846BDE8F3
:100F6000F0870000203100200020024008F8FF1F19
:100F7000A5200021044AD26902F00201022901D110
:100F8000002000E0A5207047002002400248C06910
:100F9000C0F3820070470000002002400148006A50
:100FA000704700000020024070B504460D4601263F
:100FB0004CF2503000F0ECF80646A6B900200B4980
:100FC000C8610B48006940F010000949086125809C
:100FD0004CF2503000F0DCF806460548006920F07D
:100FE000100003490861304670BD00002031002028
:100FF0000020024070B5054600244CF2503000F04D
:10100000C7F804465CBB00201649C8611648006951
:1010100040F02000144908610846006940F0400093
:1010200008614CF2503000F0B3F804460E480069F5
:1010300020F020000C4908618CB90846006940F096
:1010400010000861094805804CF2503000F0A0F80B
:1010500004460548006920F0100003490861204655
:1010600070BD0000203100200020024000F8FF1F6A
:1010700070B5044600254CF2503000F089F8054662
:10108000BDB900200C49C8610C48006940F010004F
:101090000A49086144F08800094908804CF2503040
:1010A00000F076F805460548006920F01000034975
:1010B0000861284670BD0000203100200020024059
:1010C00002F8FF1F0021074AD1610749096941F071
:1010D0000201054A116111464861096941F0400168
:1010E0001161704720310020002002400022054B92
:1010F000DA61054A126942F00102034B1A6101806C
:1011000070470000203100200020024000201E49CE
:10111000C96801F0100139B11C49C96941F00201E7
:101120001A4AD16140F010001749C96801F0040162
:1011300039B11649C96941F00101144AD16140F041
:1011400004001149C96901F0010169B10F49C96978
:1011500041F004010D4AD16100BF0B49C96921F07A
:101160000101094AD16100BF00BF40F2011188426C
:1011700006D10549C96921F00101034AD16101E0A5
:101180000149C86000BF70470020024020310020A4
:1011900070B5044601F0B0FA054609E0601C38B1AC
:1011A00024B101F0A9FA401BA04201D9032070BD6F
:1011B0001248C06800F001000028EFD10F48C06855
:1011C00000F0200020B100BF20200C49C86000BF03
:1011D0000A48C06800F0100048B90848C06900F02B
:1011E000010020B90548C06800F0040018B1FFF7FD
:1011F0008DFF0120DBE70020D9E70000002002403E
:10120000F8B505460C46002600200090B4F5D03F06
:1012100000D80CB90120F8BD00F084F804F2FF708A
:10122000C60A00200C49086008468560C6604CF27A
:101230005030FFF7ADFF6946074800F0FBFE38B1BC
:10124000314606A003F0C0FA00F012F80120E2E7F0
:1012500000F00EF80020DEE73410002065726173A4
:10126000655B25645D206572726F72210A00000063
:1012700010B500F0D9FF10BD70B504460D461646F6
:10128000324621462846FEF7BFFF304670BD2DE9A5
:10129000F041064600F0DCF94FF0006101EB8020E0
:1012A000A0F5005709143846FFF7AAFF10B1002037
:1012B000BDE8F08100F036F800BFD6E900454CF2F9
:1012C0005030FFF765FF22462B463946032000F0D9
:1012D000D5FF08B10020EBE70836D6E900454CF20F
:1012E0005030FFF755FF22462B4607F10801032037
:1012F00000F0C4FF08B10020DAE70836D6E900455F
:101300004CF25030FFF744FF22462B4607F1100104
:10131000032000F0B3FF08B10020C9E7FFF7A8FFE2
:101320000120C5E710B501F001F800BF40F235100B
:101330000149C86000BF10BD002002402DE9F74FF1
:1013400084B0824690464FF000090024002500BF7B
:1013500008F00709A8EB09080AF0070018B10020F7
:1013600007B0BDE8F08FFFF7DDFF002416E0059918
:101370000819FEF7EBFF06460F464CF25030FFF718
:1013800007FF0AEB040132463B46032000F076FFDC
:1013900018B1FFF76DFF2046E2E708344445E6D375
:1013A000B9F1000F30D00026374600250DE0611955
:1013B000059810F801B00020EA0001905846019904
:1013C000FEF703FF06430F436D1C4D45EFD34D461B
:1013D0000BE0EA00FF210020CDE902010846029956
:1013E000FEF7F3FE06430F436D1C082DF1D34CF2BC
:1013F0005030FFF7CDFE0AEB040132463B46032096
:1014000000F03CFF00B9C844FFF732FF4046A7E7B1
:1014100010B500F01DF94FF0006101EB8020A0F540
:10142000006402F02DFF4FF0FF335840594008434D
:1014300006D102F025FF134B58405940084301D014
:1014400002F034FF00F072FF00BF0F48C06920F0C7
:1014500001000D49C86100BF0C480D4A1060506082
:101460004CF25030FFF794FE094821460CC8032087
:1014700000F004FF10B107A003F0A6F900F0D4FEBD
:1014800010BD00007856FFFF00200240785634124D
:1014900020000020466F7263654170704D6F646577
:1014A000206572617365206572726F72210A000097
:1014B00010B50246D2E90003984201D1002010BDC8
:1014C0001368581C10609068C05C0870D36810687E
:1014D000B0FBF3F403FB140010600120EFE70146BA
:1014E0004A68C86810440A68801ACA68B0FBF2F3F8
:1014F00002FB13007047000010B52948406A00F055
:10150000005030B101202749087027A003F05CF992
:1015100041E02348406A00F0805030B10220214968
:10152000087025A003F050F935E01D48406A00F02E
:10153000806030B103201B49087023A003F044F9F8
:1015400029E01748406A00F0804030B10420154976
:10155000087021A003F038F91DE01148406A00F03E
:10156000004030B105200F4908701FA003F02CF98E
:1015700011E00B48406A00F0006030B106200949D4
:1015800008701EA003F020F905E007200549087047
:101590001DA003F019F901201F49086010BD0000CB
:1015A00000100240B00300205761746368446F6705
:1015B00020525354210A0D00536F667457617265AF
:1015C00020525354210A0D0050494E525354205278
:1015D0005354210A0D0000005757444752535420DA
:1015E000525354210A0D00004C6F7720506F7765DD
:1015F0007220525354210A0D00000000504F522017
:10160000525354210A0D00004F74686572205253E2
:1016100054210A0D00000000E00442420B490988F1
:1016200001800A49891C098841800849091D0988E7
:1016300081800649891D0988C180044908310988CB
:10164000018102490A31098841817047E8F7FF1F8B
:101650000148008870470000E0F7FF1F10B5024600
:101660000B460020002100BF03E0545C0444E0B2BC
:10167000491C9942F9D310BD10B5024692F82030AA
:10168000012B01D0022B06D1106840690843146871
:101690006061002010BD506A40F48020506201203B
:1016A000F8E7F0B504460D461E4694F82070206811
:1016B0008368A86800B900E000BF012F01D0022FA5
:1016C0007CD103F0806030B903F0006018B903F0FA
:1016D0008050002873D0C3F30161022905D9606AE4
:1016E00040F4000060620120F0BD012088403060BD
:1016F000A86860B9B5F800C0E86840EA4C5C2068AA
:1017000000F5C07000EB0110C0F800C00FE0D5E993
:1017100001C040EACC00D5F80CC040EA0C00D4F877
:1017200000C00CF5C07C0CEB011CCCF80000D5F817
:1017300010C0206800F5C07000EB0110C0F804C0B4
:10174000287D01280ED1206800F5C07000EB011043
:10175000406840F4807C206800F5C07000EB011008
:10176000C0F804C0D079000692F806C040EA0C40E8
:1017700092F805C040EA0C2C10794CEA000C206865
:1017800000F5C07000EB0110C0F80CC0D078000666
:1017900092F802C040EA0C4092F801C040EA0C20E6
:1017A00092F800C040EA0C00D4F800C00CF5C07CF0
:1017B0000CEB011CCCF80800206801E016E00FE0FB
:1017C00000F5C07000EB0110006840F0010C2068CB
:1017D00000F5C07000EB0110C0F800C0002083E7E6
:1017E000606A40F40010606201207DE7606A40F4A6
:1017F00080206062012077E7F0B504460A46216840
:1018000094F82050012D01D0022D74D1D1F800029E
:1018100040F00100C1F80002107D00F01F06012019
:1018200000FA06F3D1F81C029843C1F81C02D069F3
:10183000C8B9D1F80C029843C1F80C02908880B264
:10184000968940EA064601F51070576940F83760FE
:10185000108880B2168940EA064601F51070576973
:1018600000EBC7004660D069012819D1D1F80C02FD
:101870001843C1F80C02908880B2168840EA0646E8
:1018800001F51070576940F83760908980B2168969
:1018900040EA064601F51070576900EBC700466044
:1018A000906928B9D1F804029843C1F8040204E011
:1018B000D1F804021843C1F80402106928B9D1F81C
:1018C00014029843C1F8140204E0D1F8140218433A
:1018D000C1F81402106A012804D1D1F81C0218437F
:1018E000C1F81C02D1F8000220F00100C1F800028A
:1018F0000020F0BDFFE7606A40F4802060620120B4
:10190000F7E7704770B5044694F82050012D01D0D8
:10191000022D7CD151B92068C06800F0030080B965
:10192000606A40F400106062012070BD20680069A8
:1019300000F0030028B9606A40F4001060620120E2
:10194000F3E7206800F5D87000EB0110006800F0A4
:1019500004009060906840B9206800F5D87000EBF2
:1019600001100068400D106007E0206800F5D87095
:1019700000EB01100068C0085060206800F5D870C6
:1019800000EB0110006800F002004008D060206801
:1019900000F5D87000EB0110406800F00F001061F6
:1019A000206800F5D87000EB0110406800F47F401B
:1019B000000A9061206800F5D87000EB01104068C3
:1019C000000C5061206800F5D87000EB01108068B1
:1019D0001870206800F5D87000EB0110806800F4E2
:1019E0007F40000A5870206800F5D87000EB0110A5
:1019F000806800F47F00000C9870206800F5D870B3
:101A000000EB01108068000ED870206800E031E023
:101A100000F5D87000EB0110C0681871206800F55F
:101A2000D87000EB0110C06800F47F40000A5871C4
:101A3000206800F5D87000EB0110C06800F47F004A
:101A4000000C9871206800F5D87000EB0110C06898
:101A5000000ED87131B92068C06840F020002668B7
:101A6000F06005E02068006940F0200026683061E1
:101A700000205AE7606A40F480206062012054E749
:101A80002DE9F05F04460025206846692068D0F8FB
:101A90000490206887682068D0F80CA02068D0F8EF
:101AA00010B02068D0F8188006F00100002855D04A
:101AB00007F00100C0B101202168886007F0020032
:101AC00018B1204600F09BFA0EE007F0040010B1B8
:101AD00045F4006508E007F0080010B145F48055B2
:101AE00002E0204600F08AFA07F48070C8B14FF493
:101AF00080702168886007F4007018B1204600F0FB
:101B000080FA0EE007F4806010B145F4005508E05B
:101B100007F4006010B145F4804502E0204600F073
:101B20006FFA07F48030C8B14FF4803021688860C4
:101B300007F4003018B1204600F065FA0EE007F413
:101B4000802010B145F4004508E007F4002010B1F2
:101B500045F4803502E0204600F054FA06F0080013
:101B600038B10AF0100020B145F40075102021684A
:101B7000C86006F0040040B10AF0080028B108204F
:101B80002168C860204600F0A3F906F0020038B1D1
:101B90002068C06800F0030010B1204600F09AF9F8
:101BA00006F0400038B10BF0100020B145F480651C
:101BB00010202168086106F0200040B10BF00800F9
:101BC00028B1082021680861204600F0E5F906F0F8
:101BD000100038B12068006900F0030010B1204601
:101BE00000F0DBF906F4003040B109F0100028B134
:101BF000102021684860204600F0D0F906F48030BB
:101C000040B109F0080028B108202168486020464A
:101C100000F0FAF906F4004088B309F0040078B344
:101C200006F4807020B108F0010008B145F001050C
:101C300006F4007020B108F0020008B145F002057A
:101C400006F4806020B108F0040008B145F00405F6
:101C500006F40060A0B108F0700088B108F07000D0
:101C6000402817D006DC10280BD020280CD03028B4
:101C700019D10CE0502810D0602814D110E01DE0DC
:101C800019E045F008050FE045F010050CE045F0BF
:101C9000200509E045F0400506E045F0800503E039
:101CA00045F4807500E000BF00BF2068806920F027
:101CB0007000216888610420216848602DB1606A45
:101CC000284360622046FFF71CFEBDE8F09F70B518
:101CD00004460CB9012070BD94F8200010B92046CC
:101CE00000F0B0F82068006820F002002168086069
:101CF00000F002FD05460DE000F0FEFC401B0A2846
:101D000008D9606A40F400306062052084F8200041
:101D10000120E0E72068406800F002000028EBD1D5
:101D20002068006840F001002168086000F0E4FCD1
:101D300005460DE000F0E0FC401B0A2808D9606A67
:101D400040F400306062052084F820000120C2E7E2
:101D50002068406800F001000028EBD0207E0128B8
:101D600006D12068006840F080002168086005E026
:101D70002068006820F0800021680860607E0128EB
:101D800006D12068006840F040002168086005E046
:101D90002068006820F0400021680860A07E0128CB
:101DA00006D12068006840F020002168086005E046
:101DB0002068006820F0200021680860E07E01288B
:101DC00006D12068006820F010002168086005E056
:101DD0002068006840F0100021680860207F01281A
:101DE00006D12068006840F008002168086005E01E
:101DF0002068006820F0080021680860607F0128E2
:101E000006D12068006840F004002168086005E001
:101E10002068006820F0040021680860D4E902010D
:101E2000084321690843616908436168491E084302
:101E30002168C86100206062012084F82000002031
:101E400049E7000010B586B0044600BF1E48C069CF
:101E500040F000701C49C8610846C06900F000707D
:101E6000019000BF00BF00BF0846806940F0040039
:101E700088610846806900F00400019000BF00BF3F
:101E80008814029002200390032005900120049002
:101E900002A90E4800F086FA4FF40060029000207C
:101EA0000390032005900120049002A9074800F048
:101EB00079FA00220121142000F0ABFC142000F07C
:101EC00098FC06B010BD0000001002400008014060
:101ED0007047000010B58AB0044601AB03AA002188
:101EE0002046FFF70FFD10B124A002F06DFC294938
:101EF000D1F8E41201EBC1022649103101EB820056
:101F00001C2203A9FEF780F92248D0F8E40200EB76
:101F1000C0012048103000EB8100DDE90112C0E96A
:101F200007121C48D0F8E402401C1A49C1F8E40228
:101F30000846D0F8E4021421B0FBF1F201FB1200D4
:101F40001449C1F8E4020846D0F8E402D1F8E012DE
:101F5000884211D10F48D0F8E002401C0D49C1F869
:101F6000E0020846D0F8E0021421B0FBF1F201FBD8
:101F700012000849C1F8E0020AB010BD63616E208A
:101F8000726563657074696F6E206661696C210AA1
:101F90000D0000008C00002070477047704770B53E
:101FA000044694F82000012822D1022084F8200061
:101FB0002068006820F001002168086000F09CFBA8
:101FC00005460DE000F098FB401B0A2808D9606A1E
:101FD00040F400306062052084F82000012070BDCC
:101FE0002068406800F001000028EBD16062F6E74D
:101FF000606A40F4002060620120F0E7704770479B
:1020000070477047704770477047000070B50446CE
:1020100000F072FB06462546681C10B104480078A3
:10202000054400BF00F068FB801BA842FAD370BDD6
:10203000D40300202DE9F04104460E460127002577
:1020400000BF2648007E012802D10220BDE8F081B1
:1020500001202249087600BF2068022813D14CF2E3
:102060005030FFF795F890BB0120FEF783FE4CF24D
:102070005030FFF78DF807461948006920F004003A
:102080001749086123E04CF25030FFF781F8F0B9AE
:102090004FF0FF303060A56812E02846FFF712F8D5
:1020A0004CF25030FFF774F807460D48006920F0F5
:1020B00002000B4908610FB1356007E005F50065C6
:1020C000D4E9021001EBC020A842E6D800BF00BF4F
:1020D00000200249087600BF3846B7E720310020CB
:1020E0000020024070B5A5250124FEF741FFC5B2CE
:1020F0004CF25030FFF74CF80446ECB900200F4981
:10210000C8610F48006940F020000D490861084689
:10211000006940F0400008614CF25030FFF738F899
:1021200004460748006920F02000054908611CB9F1
:102130002846FEF75FFF0446204670BD2031002090
:102140000020024010B5044607202060FEF726FF5D
:10215000A060FEF70DFF2074FEF718FF607410BD3D
:1021600070B50446012500BF2E48007E012801D12C
:10217000022070BD01202B49087600BF207800F0B6
:10218000010098B16068012804D1A068FEF77AFECA
:10219000054603E0A068FEF701FE054635B100BF25
:1021A00000202049087600BF2846E2E7207800F0AA
:1021B000020002280BD1207CFEF71CFF054635B13A
:1021C00000BF00201749087600BF2846D1E72078D5
:1021D00000F0040004280BD1607CFEF749FF05469F
:1021E00035B100BF00200F49087600BF2846C0E780
:1021F000207800F0080008280CD1217E6069FEF7E5
:10220000D3FE054635B100BF00200649087600BF61
:102210002846AEE700BF00200249087600BF2846E6
:10222000A7E70000203100200348006940F080004B
:1022300001490861002070470020024003480069FE
:1022400020F400700149086100207047002002401E
:102250000748006900F4007028B9064804498860FE
:102260000548886001E0012070470020FCE700007D
:102270000020024023016745AB89EFCD2DE9FE4FD9
:1022800005468B46174698460126002400200290FA
:1022900000BF2448007E012802D10220BDE8FE8F45
:1022A00001202049087600BF4CF25030FEF770FF45
:1022B000064686BB012D02D10120029006E0022DC8
:1022C00002D10220029001E00420029000241EE0CE
:1022D0002201B946C24648465146FDF785FF80B205
:1022E0000190022000FB04B000900199FEF7FEFE71
:1022F0004CF25030FEF74CFF06460B48006920F0C8
:1023000001000949086106B104E0601CC4B20298EA
:102310008442DDDB00BF00BF00200249087600BF19
:102320003046BBE720310020002002400020084951
:10233000096901F0800151B10649054A5160064919
:1023400051601146096901F0800101B10120704717
:102350000020024023016745AB89EFCD70B50546EB
:102360000024284601F03CFB0446064850F834009F
:1023700038B1044A02EBC4025068024A52F83410E1
:10238000884770BD5020002010B5044604480068FE
:10239000204020B1024804602046FFF7DFFF10BD57
:1023A000140401402DE9F8470246002400200025CE
:1023B0008446002700237BE14FF0010808FA03F46C
:1023C000D1F8008008EA0400A0427DD1DFF8ECA239
:1023D000D1F80480A8EB0A09D0453AD014DCB8F152
:1023E000030F50D009DCB8F1000F31D0B8F1010F64
:1023F0001CD0B8F1020F49D120E0B8F1110F18D06C
:10240000B8F1120F42D11EE0B9F5881F25D006DCC5
:10241000B9F5803F20D0B9F5801F37D11AE0B9F562
:10242000001F18D0B9F5041F30D117E0D1F80CC047
:102430002DE0D1F80C8008F1040C28E0D1F80C80D4
:1024400008F1080C23E0D1F80C8008F10C0C1EE018
:1024500000BF00BF00BF00BF00BF00BFD1F80880B1
:10246000B8F1000F02D14FF0040C0BE0D1F8088056
:10247000B8F1010F03D14FF0080C146102E04FF0E6
:10248000080C546103E04FF0000C00E000BF00BFF7
:10249000FF2801D8904601E002F104084646FF28D3
:1024A00002D84FEA830803E0A3F108084FEA88083E
:1024B0004746D6F800804FF00F0909FA07F928EAD5
:1024C00009080CFA07F900E07AE048EA0908C6F8BA
:1024D0000080D1F8048008F08058B8F1805F6FD197
:1024E00000BFDFF8DC81D8F8188048F00108DFF879
:1024F000D091C9F81880C846D8F8188008F00108AB
:10250000CDF8008000BF00BF4FEAB9384FEA930909
:1025100058F829504FEA83784FEA18794FF00F089E
:1025200008FA09F825EA0805DFF89881424502D142
:102530004FF0000824E0DFF89081424502D14FF0CF
:1025400001081DE0DFF88481424502D14FF0020806
:1025500016E0DFF87C81424502D14FF003080FE01E
:10256000DFF87081424502D14FF0040808E0DFF83F
:102570006881424502D14FF0050801E04FF006089E
:102580004FEA83794FEA197908FA09F848EA05050C
:10259000DFF848814FEA930948F82950D1F80480C0
:1025A00008F48038B8F5803F0BD1DFF83481D8F8D3
:1025B000008048EA0008DFF82891C9F800800AE0A6
:1025C00075E0DFF81C81D8F8008028EA0008DFF801
:1025D0001091C9F80080D1F8048008F40038B8F5EB
:1025E000003F0ED1DFF8F88008F10408D8F8008029
:1025F00048EA0008DFF8E89009F10409C9F800800A
:102600000DE0DFF8DC8008F10408D8F8008028EA43
:102610000008DFF8CC9009F10409C9F80080D1F86E
:10262000048008F48018B8F5801F0ED1DFF8B08060
:1026300008F10808D8F8008048EA0008DFF8A09000
:1026400009F10809C9F800800DE0DFF8948008F16D
:102650000808D8F8008028EA0008DFF8849009F11B
:102660000809C9F80080D1F8048008F40018B8F50A
:10267000001F0ED1DFF8688008F10C08D8F8008040
:1026800048EA0008DFF8589009F10C09C9F8008001
:102690000DE0DFF84C8008F10C08D8F8008028EA3B
:1026A0000008DFF83C9009F10C09C9F800805B1CB8
:1026B000102BFFF481AEBDE8F88700000000111078
:1026C0000010024000080140000C014000100140D1
:1026D0000014014000180140001C014008000140A6
:1026E00000040140C2684A40C26070470AB10161FB
:1026F00001E00B0403617047014800687047000067
:10270000CC03002070B504460CB9012070BD4CF616
:10271000CC402168086045F2555021680860D4E932
:10272000001048602168A0688860FFF7E5FF054653
:1027300006E0FFF7E1FF401B302801D90320E5E761
:102740002068C0680028F4D14AF6AA2021680860F1
:102750000020DBE701464AF6AA200A681060002044
:10276000704700000348006803490978084401499C
:1027700008607047CC030020D403002010B508483F
:10278000006840F0100006490860032000F080F85F
:102790000F2000F007F800F02BF8002010BD00001B
:1027A0000020024070B504460E4800784FF47A715C
:1027B000B1FBF0F00C490968B1FBF0F5284601F0D7
:1027C000A3F808B1012070BD102C07D200222146C9
:1027D000501E00F01EF80548046001E00120F2E7F9
:1027E0000020F0E7D403002000000020D0030020E8
:1027F000704701460846002809DB00F01F0301224C
:102800009A4043099B0003F1E023C3F8002100BF75
:1028100070472DE9F05F80460D461646002701F00F
:10282000E3FF074639462A46334601F00700C0F168
:10283000070ABAF1040F02D94FF0040A01E0C0F10F
:10284000070AD14600F1040ABAF1070F02D24FF08D
:10285000000A01E0A0F1030AD4464FF0010A0AFA87
:1028600009FAAAF1010A0AEA020A0AFA0CFA4FF076
:10287000010B0BFA0CFBABF1010B0BEA030B4AEA61
:102880000B042146404601F0B7FFBDE8F09F000071
:1028900000BF00F00702064B19684FF6FF0319400E
:1028A000044B0B4343EA0221014B196000BF704700
:1028B0000CED00E00000FA0500BF00BF00BF00BF44
:1028C00000BFBFF34F8F00BF00BF00BF09480068C3
:1028D00000F4E06008490843001D0649086000BF95
:1028E00000BF00BFBFF34F8F00BF00BF00BF00BFDE
:1028F00000BFFDE70CED00E00000FA0501200149F2
:102900000862704700000E422DE9F04385B006468C
:1029100044A30FCB01AC0FC446A0006800904FF059
:102920000008002500270024A146042E36D004DC30
:10293000012E3BD0022E6FD162E0082E32D0102E35
:102940006AD13D484468006800F0807000B301A877
:10295000C4F38341475C04F4803070B1364840686A
:10296000C0F340401DF8008004F4803040B133488B
:10297000B0FBF8F000FB07F502E0314807FB00F57B
:102980002D48406800F48000B0F5800F01D1A946C1
:1029900003E068000321B0FBF1F93EE000F05CFACF
:1029A00081463AE000F058FA814636E02248046A4F
:1029B00004F44070B0F5807F05D104F0020010B13E
:1029C0004FF400491BE004F44070B0F5007F07D1DC
:1029D0001948406A00F0020010B149F640490EE083
:1029E00004F44070B0F5407F07D11348006800F44C
:1029F000003010B14FF2244901E04FF000090CE023
:102A000000F01AFA0C494968C1F38131491C4900A8
:102A1000B0FBF1F901E0FFE700BF00BF484605B099
:102A2000BDE8F08302030405060708090A0B0C0D34
:102A30000E0F1010010200000010024000127A0078
:102A400000093D00F8B5044600260025207800F076
:102A5000010000286BD000274348C06900F0805077
:102A600070B900BF4048C06940F080503E49C8611D
:102A70000846C06900F08050009000BF00BF0127E9
:102A80003A48006800F48070B0B93848006840F4F3
:102A9000807036490860FFF72FFE064606E0FFF714
:102AA0002BFE801B642801D90320F8BD2F48006845
:102AB00000F480700028F2D02B48006A00F44075C2
:102AC0002DB3A08800F44070A84220D02648006AA8
:102AD00020F4407501202649086000200860224843
:102AE000056205F0010090B1FFF706FE064608E01A
:102AF000FFF702FE801B41F28831884201D9032092
:102B0000D3E71948006A00F002000028F0D0164808
:102B1000006A20F440706168084313490862012F7D
:102B200004D10846C06920F08050C86100BF2078F9
:102B300000F00200022807D10B48406820F4404012
:102B4000A168084308494860207800F01000102868
:102B500007D10548406820F48000616908430249B4
:102B600048600020A1E70000001002400070004013
:102B70004004424270B504460D4600266D48006888
:102B800000F00700A8420ED26A48006820F0070053
:102B90002843684908600846006800F00700A8421A
:102BA00001D0012070BD207800F0020002281DD164
:102BB000207800F00400042805D15F48406840F404
:102BC000E0605D494860207800F00800082805D1E1
:102BD0005948406840F4605057494860564840683A
:102BE00020F0F000A168084353494860207800F0C5
:102BF000010000285DD06068012806D14E480068B9
:102C000000F4003090B90120CCE76068022806D1BA
:102C10004948006800F0007040B90120C2E746480A
:102C2000006800F0020008B90120BBE74248406894
:102C300020F00300616808433F494860FFF75CFDEE
:102C400006466068012810D108E0FFF755FD801B9B
:102C500041F28831884201D90320A3E73648406811
:102C600000F00C000428F0D123E06068022810D1A5
:102C700008E0FFF741FD801B41F28831884201D90D
:102C800003208FE72C48406800F00C000828F0D1A2
:102C90000FE008E0FFF730FD801B41F288318842E9
:102CA00001D903207EE72448406800F00C0000288A
:102CB000F0D12048006800F00700A8420ED91D4856
:102CC000006820F0070028431A4908600846006899
:102CD00000F00700A84201D0012063E7207800F04F
:102CE0000400042807D11448406820F4E060E1683B
:102CF000084311494860207800F00800082808D1EE
:102D00000D48406820F46050216940EAC1000A493A
:102D1000486000F0A1F808494968C1F30311074A67
:102D2000515CC840064908600F20FFF73BFD0020BA
:102D300038E700000020024000100240848A0008AA
:102D400000000020014800687047000000000020DB
:102D50000F2101602F49096801F48021B1F5802F0E
:102D600003D14FF4A02141600CE02A49096801F425
:102D70008031B1F5803F03D14FF48031416001E0F3
:102D8000002141602349496801F4003181602149F3
:102D9000096801F0010111B10121016101E0002187
:102DA00001611C490968C1F3C40141611949096AFB
:102DB00001F00401042902D10521C16009E015498F
:102DC000096A01F0010111B10121C16001E0002196
:102DD000C1601049496A01F0010111B1012181610D
:102DE00001E0002181610B49096801F08071B1F1B6
:102DF000807F02D10221C16101E00121C161054949
:102E0000496801F4803202620249496801F4701293
:102E1000426270470010024000B5FFF793FF04497B
:102E20004968C1F30221034A515CC84000BD00005B
:102E300000100240948A000800B5FFF783FF0449A0
:102E40004968C1F3C221034A515CC84000BD00007B
:102E500000100240948A0008F0B585B00FF26C0CA7
:102E60009CE8E01001A8A0E8E0101CA52D680095E2
:102E700000210022002300240020194D696801F080
:102E80000C05F5B1042D02D0082D19D101E015482B
:102E900019E001ADC1F38346AC5D01F4803555B155
:102EA0000F4D6D68C5F340451DF805200D4D654378
:102EB000B5FBF2F302E00C4D04FB05F3184602E00B
:102EC00000BF084800BF00BF05B0F0BD0203040505
:102ED000060708090A0B0C0D0E0F10100102000066
:102EE0000010024000127A0000093D00F8B50446C7
:102EF0000025207800F00100002878D0F8484068CC
:102F000000F00C0004280CD0F548406800F00C00DC
:102F1000082811D1F248406800F48030B0F5803FB5
:102F20000AD1EF48006800F4003000285FD06068E4
:102F300000285CD10120F8BD00BF6068B0F5803F7B
:102F400006D1E748006840F48030E549086028E091
:102F5000606858B9E248006820F48030E0490860B1
:102F60000846006820F4802008601AE06068B0F528
:102F7000A02F0BD1DA48006840F48020D8490860BF
:102F80000846006840F4803008600AE0D4480068D1
:102F900020F48030D24908600846006820F4802080
:102FA000086000BF606888B1FFF7A6FB054606E031
:102FB000FFF7A2FB401B642801D90320BBE7C848E8
:102FC000006800F400300028F2D010E0FFF794FB16
:102FD000054606E0FFF790FB401B642801D903205B
:102FE000A9E7BF48006800F400300028F2D120783B
:102FF00000F00200022857D1B948406800F00C00E8
:1030000050B1B748406800F00C00082818D1B44807
:10301000406800F4803098B9B148006800F00200C0
:1030200020B12069012801D0012084E7AC48006864
:1030300020F0F800616940EAC100A949086033E066
:103040002069E8B10120A7490860FFF755FB054654
:1030500006E0FFF751FB401B022801D903206AE775
:103060009F48006800F002000028F2D09C480068E9
:1030700020F0F800616940EAC1009949086013E056
:10308000002098490860FFF737FB054606E0FFF788
:1030900033FB401B022801D903204CE7904800680D
:1030A00000F002000028F2D1207800F00800082883
:1030B0002DD1A069B8B101208B490860FFF71CFB36
:1030C000054606E0FFF718FB401B022801D9032044
:1030D00031E78348406A00F002000028F2D0012066
:1030E00000F024FF13E000207F490860FFF704FB95
:1030F000054606E0FFF700FB401B022801D903202C
:1031000019E77748406A00F002000028F2D12078E1
:1031100000F00400042873D100267148C06900F053
:10312000805070B900BF6E48C06940F080506C4953
:10313000C8610846C06900F08050009000BF00BF21
:1031400001266A48006800F48070B0B967480068DA
:1031500040F4807065490860FFF7CEFA054606E046
:10316000FFF7CAFA401B642801D90320E3E65F4851
:10317000006800F480700028F2D000BFE0680128E9
:1031800006D15748006A40F001005549086227E01F
:10319000E06858B95248006A20F0010050490862BE
:1031A0000846006A20F00400086219E0E06805287B
:1031B0000BD14B48006A40F00400494908620846B8
:1031C000006A40F0010008620AE04548006A20F009
:1031D0000100434908620846006A20F004000862C2
:1031E00000BFE068A0B1FFF787FA054609E0FFF7E6
:1031F00083FA401B41F28831884202D903209AE6C3
:1032000022E03748006A00F002000028EFD012E008
:10321000FFF772FA054608E0FFF76EFA401B41F22D
:103220008831884201D9032085E62D48006A00F0E4
:1032300002000028F0D1012E05D12948C06920F0F4
:1032400080502749C86100BFE069C8B3244840687E
:1032500000F00C00082860D0E069022848D1002066
:1032600020490866FFF748FA054606E0FFF744FAEA
:10327000401B022801D903205DE61948006800F0D0
:1032800000700028F2D1206AB0F5803F07D11448C1
:10329000406820F40030A168084311494860D4E92F
:1032A000080108430E49496821F4741108430C4988
:1032B000486001200B490866FFF71EFA054607E043
:1032C0002DE0FFF719FA401B022801D9032032E64E
:1032D0000348006800F000700028F2D01FE00000F2
:1032E0000010024000004242800442420070004050
:1032F00000200C490866FFF7FFF9054606E0FFF7D6
:10330000FBF9401B022801D9032014E60648006897
:1033100000F000700028F2D101E001200BE600204F
:1033200009E60000000042420010024010B50346CA
:1033300000220020024A02EB81021468A0B210BDF4
:10334000006C004010B503460020034800EB8100EC
:1033500094B2046010BD0000006C0040014609B941
:103360000120704700BF087C012801D10220F8E746
:103370000120087400BF022048740868006820F02B
:1033800001000A6810600120487400BF0020087422
:1033900000BF00BFE5E7000010B5044605F044FBA0
:1033A000044804F090FF044804F08DFF034804F043
:1033B0008AFF10BD280000203000002038000020C7
:1033C000704710B504462068006800F00100E0B1C5
:1033D0002068406800F00100B8B120684068C0F380
:1033E000800048B12046FFF7EBFF6FF00400216832
:1033F00048600420607404E02046FFF7CDFF012000
:1034000060746FF001002168486010BD014609B981
:103410000120704700BF087C012801D10220F8E795
:103420000120087400BF022048740868006840F05A
:1034300001000A6810600120487400BF0020087471
:1034400000BF00BFE5E710B504460CB9012010BD70
:1034500002206074204600F0F0FD38B10420607452
:1034600000BF0020207400BF0120F0E70020216889
:10347000C861216888614FF400402168C86000205D
:10348000216888602168086021684860204600F053
:10349000F1FD38B10420607400BF0020207400BF2B
:1034A0000120D4E7204600F00FFA2068406820F0A1
:1034B000080021684860204600F01AF90020607476
:1034C00000BF207400BF00BFC1E7F8B505460C4639
:1034D00016460020009005B10CB90120F8BD00226D
:1034E0006946284600F01AF808B10120F6E7287B63
:1034F0002070E87BE070687B6070A87BA0705EB194
:10350000E07800F032FDE070607800F02EFD607031
:10351000A07800F02AFDA0700020DFE72DE9F04739
:1035200080460C46914600250026AA460027B8F1A1
:10353000000F00D014B90120BDE8F087D8F80000D2
:103540004068C0F3800008B10120F5E7404600F074
:10355000DCFD05464FF46160B5FBF0F7B5FBF0F11B
:1035600000FB11503C21B0FBF1F060704FF4616042
:10357000B5FBF0F100FB11503C21B0FBF1F201FB77
:103580001200A070182F39D31820B7FBF0FAB7FB40
:10359000F0F100FB11702070404600F0AAFD0646D5
:1035A000701C18B1AE4201D9761B01E04FF0FF3616
:1035B0000AEB4A00C000C0EB4011C1EB0020A5EBB4
:1035C00000152946404600F013FE08B10120B3E77C
:1035D000701C38B12E443146404600F0F2FD40B137
:1035E0000120A9E73146404600F0EBFD08B101207B
:1035F000A2E75146404600F0C5FC00E02770B9F153
:10360000000F0BD0207800F0B0FC2070607800F044
:10361000ACFC6070A07800F0A8FCA07000208BE7E4
:1036200070B5044600250CB9012070BD607C20B93E
:1036300000202074204600F05CF8022060742046D0
:1036400000F042F918B1042060740120EDE7204633
:1036500000F0F3FC18B1042060740120E5E7206855
:10366000406820F0070021684860A06828B11F4822
:10367000006820F001001D4908601C48001F006818
:1036800020F46070A16808431849091F0860606849
:10369000401C08B1656809E00120FFF735F90546CF
:1036A0001DB9042060740120BFE76D1E206880688A
:1036B00020F00F0040EA1540216888602068C0684B
:1036C00065F30F002168C860204600F0D3FC18B1F4
:1036D000042060740120A8E70021E17301216173D7
:1036E000A1730120607400209FE70000306C00404F
:1036F000704770472DE9F04704460D469046002676
:103700000027B14604B115B90120BDE8F08700BF1C
:10371000207C012801D10220F7E70120207400BF9E
:1037200002206074B8F1000F06D1E978E17369787E
:103730006173A978A1730BE0E87800F00BFCE073EB
:10374000687800F007FC6073A87800F003FCA073B1
:10375000A27B617BE07B00F0F2FC2073207B287071
:10376000204600F0D2FC06464FF46160B6FBF0F94B
:10377000B9F1180F2FD91820B9FBF0F000EB400079
:10378000C000C0EB4011C1EB0020A6EB0016314693
:10379000204600F02DFD38B10420607400BF0020E9
:1037A000207400BF0120B0E7204600F0A2FC0746CD
:1037B000781C80B1B7420ED20B48074439462046E8
:1037C00000F0FFFC38B10420607400BF00202074BA
:1037D00000BF012099E70120607400BF0020207421
:1037E00000BF00BF91E70000805101002DE9F047C4
:1037F00004460D4690460026002704B115B9012065
:10380000BDE8F08700BF207C012801D10220F7E746
:103810000120207400BF02206074B8F1000F0BD1AA
:1038200028784FF4616148436978C1EB011100EBDE
:103830008100A978461812E0287800F08BFB4FF43D
:10384000616100FB01F9687800F084FBC0EB0010B7
:1038500009EB8009A87800F07DFB09EB00063146F2
:10386000204600F0C5FC38B10420607400BF002081
:10387000207400BF0120C3E72068406820F00500E5
:1038800021684860204600F034FC0746781C80B16F
:10389000B7420ED20B4807443946204600F091FC4F
:1038A00038B10420607400BF0020207400BF0120E4
:1038B000A6E70120607400BF0020207400BF00BF95
:1038C0009EE700008051010070B5044600250CB948
:1038D000012070BD2068406820F008002168486021
:1038E000FEF70AFF054607E0FEF706FF401BB0F5AE
:1038F0007A7F01D90320ECE72068406800F00800D7
:103900000028F1D00020E4E770B504462546681E83
:10391000B0F1807F01D301200FE0681E4FF0E0215D
:1039200048610F214FF0FF3000F066FF00204FF09C
:10393000E021886107200861002070BD10B50446B1
:103940000CB9012010BD242084F83900204600F075
:1039500045F80020E06384F8390084F83A0000BF9D
:1039600084F8380000BF00BFECE710B504460CB97E
:10397000012010BDA06900B100E000BF94F839003B
:1039800028B9002084F83800204600F028F82420C8
:1039900084F839002068C06820F400502168C860AD
:1039A000204600F0CDFD2068006920F49040216899
:1039B00008612068406920F02A0021684861206879
:1039C000C06840F400502168C8600020E0632020F7
:1039D00084F8390084F83A000020CAE7704770473D
:1039E0000246002102F47F4008B141F008014FF285
:1039F000F000104008B141F004014CF6CC401040FA
:103A000008B141F002014AF6AA20104008B141F085
:103A100001010B46C81701EB10700011A1EB00105B
:103A2000C0B2704700BFFEE700BFFEE7704700006E
:103A30002DE9F04104460F4608260025B74202D280
:103A40000020BDE8F081FE2228466D1C2254284645
:103A50006D1C2654C6F3072228466D1C2254E22210
:103A600028466D1C22541149C88AC11700EB116108
:103A70000912A0EB0121CBB229466D1C63540B49FE
:103A8000C88AC11700EB1161C1F3072329466D1CD9
:103A90006354F11E601CFDF7E1FD29466D1C605466
:103AA000BE2228466D1C22542846CAE7FC0F00207F
:103AB0007FB5002400200290039000234FF40062A1
:103AC0001D491E4804F0EBFD044624B9FEF714FE20
:103AD0001B4908607FBD21461AA000F075FE2246F2
:103AE0001549684600F034F8DDE90001CDE902012E
:103AF0009DF8080040B11148039904F0BAFCFEF7A4
:103B0000FBFD0F49086014E0FEF7F6FD0C4909685B
:103B1000451A002D01DD284600E0684244F6206188
:103B2000884206DD054804F09CFCFEF7E5FD0449EB
:103B3000086000BFCEE700004414002050000020C1
:103B40009C0300204C454E3A25640D0A00000000FD
:103B50002DE9FE4F80460D469146002001900290CF
:103B600000240026834600900027FDF771FD4FF0EA
:103B7000006101EB8020A0F5E43AB9F1080F6ED3A3
:103B800000BF4DE0285DFE2818D0641C04E0285DCD
:103B9000FE2800D102E0641C4C45F8D300BFA9EB1D
:103BA0000400082800D33BE002208DF804000294B2
:103BB000DDE90101C8E90001BDE8FE8FA01C2E5C13
:103BC000601C285C00EB0626B6F5A06F01D8082E15
:103BD00001D2641C24E0A9EB0400B0420ED224B947
:103BE00000208DF80400029003E002208DF804000C
:103BF0000294DDE90101C8E90001DDE7A019401EDA
:103C0000285CBE280AD1F11E2A19501CFDF726FD9A
:103C1000A119891E695C884200D102E0641C00BFC2
:103C2000B0E700BF01208DF80400601D15F800B05A
:103C3000201D285C40EA0B2BE01C285CA1287CD0CE
:103C400006DC0E287AD00F2879D0A02878D1B4E0ED
:103C5000E02805D0E12842D0E228F7D181E0BBE09E
:103C60001420FEF7D3F901205E490870A01D285CDE
:103C70005D490880E01D285C097840EA01205A4926
:103C80000880291901F10A00FCF754FB0021574A6A
:103C900003C2291901F10E00FCF745FB54490860E5
:103CA000291901F11000FCF745FB0021514A03C21C
:103CB000291901F10800FDF7EAFA4C48016850465D
:103CC000FDF79EFA4FF480614B4800F09BF80746E1
:103CD00027B13A464849494804F0F7FC74E002200D
:103CE000404908702919881DFCF71DFB44490880CC
:103CF0000A2E29D9084600883D4909684843B0F58D
:103D0000D03F21D2A6F10A0000902A1902F1080141
:103D10003B4A1288364B1B6802FB03A0009AFDF752
:103D20000DFB00224FF48061334800F0ABF80746EA
:103D3000B7B13A463049314803E03BE029E035E08D
:103D400041E004F0C2FC0BE0012291022A4800F09D
:103D500099F8074627B13A462749284804F0B5FCA8
:103D600032E003201F4908704FF480612248FFF7BA
:103D70005FFE074647B13A461F49204804F0A5FCBC
:103D80004FF4FA60FEF742F900F0CEFC04F0C5FCF7
:103D90001AE04FF48061184801F0EAFC074627B1A9
:103DA0003A461549154804F090FC0DE0284601F00C
:103DB0008FFC09E001F080FD06E00A20FEF726F9FD
:103DC00004F0ABFC00E000BF00BF30190290DDE959
:103DD0000101C8E90001EFE6DDE90101C8E90001E0
:103DE00000BFE9E6780300207A030020800300206A
:103DF0008803002090030020441C00205000002075
:103E0000980300202DE9F04104460F4608260025BE
:103E1000B74202D20020BDE8F081FE2228466D1C88
:103E2000225428466D1C2654C6F3072228466D1CD2
:103E30002254E02228466D1C22541149C88AC11719
:103E400000EB11610912A0EB0121CBB229466D1CD8
:103E500063540B49C88AC11700EB1161C1F30723F2
:103E600029466D1C6354F11E601CFDF7F7FB2946C3
:103E70006D1C6054BE2228466D1C22542846CAE799
:103E8000FC0F00202DE9F04104460F4690460B261A
:103E90000025B74202D20020BDE8F081FE2228466C
:103EA0006D1C225428466D1C2654C6F30722284652
:103EB0006D1C2254E12228466D1C22541849C88AE0
:103EC000C11700EB11610912A0EB0121CBB2294609
:103ED0006D1C63541249C88AC11700EB1161C1F30C
:103EE000072329466D1C63540E48027828466D1C32
:103EF00022540C480088021228466D1C2254284681
:103F00006D1C04F80080F11E601CFDF7A7FB29461C
:103F10006D1C6054BE2228466D1C22542846BBE707
:103F2000FC0F0020980300207047000008B50849E6
:103F30000968C9084FF47A72B1FBF2F1414300916C
:103F400000BF00BF00994A1E00920029F9D108BDA8
:103F500000000020014600BF080900EB800042007D
:103F600001F00F001044C0B270470146002203E088
:103F7000521CA1F10A00C1B20A29F9D2100741EA84
:103F8000106070472DE9F047064688460027002458
:103F90000025A146F77B747BB57B00BF40E0012C78
:103FA0000BD0032C09D0052C07D0072C05D0082CEA
:103FB00003D00A2C01D00C2C0CD11F2D01D26D1C6A
:103FC0002CE00C2C02D0641C012527E001240125E3
:103FD0007F1C23E0042C05D0062C03D0092C01D033
:103FE0000B2C06D11E2D01D26D1C17E0641C01257F
:103FF00014E0022C12D11C2D01D26D1C0EE01C2DE0
:1040000008D1B8B200F05CF808B16D1C06E0641C81
:10401000012503E01D2D01D1641C012509F10109D1
:10402000C145BCD3F7737473B573EAB2E1B23846D5
:1040300000F085F83073BDE8F08770B504460025C0
:10404000FEF75AFB054607E0FEF756FB401BB0F5AE
:104050007A7F01D9032070BD2068406800F02000FD
:104060000028F1D02068406840F0100021684860C6
:104070000020F0E770B5044600252068406820F075
:10408000100021684860FEF737FB054607E0FEF7A1
:1040900033FB401BB0F57A7F01D9032070BD206847
:1040A000406800F020000028F1D00020F6E7000072
:1040B00010B50248FFF785F910BD0000D0200020A0
:1040C000014601F0030008B1002070476420B1FBF5
:1040D000F0F200FB121008B10120F6E74FF4C870AF
:1040E000B1FBF0F200FB121008B90120EDE700204F
:1040F000EBE70146002200230868006A82B20868E4
:10410000406A83B243EA0240704730B5014600225C
:104110000023002400200D68AD69AAB20D68ED6986
:10412000ACB20D68AD69ABB29A4205D00D68ED69CD
:1041300063F31F45284601E044EA024030BDF0B574
:1041400004460B460021002504F5FA61032B1BD21F
:10415000C3EBC30000EB03100926B0FBF6F01044DC
:10416000001D4618481E06EB90066427B0FBF7F0CA
:10417000361A481EBF00B0FBF7F030440726B0FBEC
:10418000F6F706FB17051AE0C3EBC30000EB0310BC
:104190000926B0FBF6F01044001D084400EB910026
:1041A0006426B1FBF6F6801B4FF4C876B1FBF6F639
:1041B0003044801E0726B0FBF6F706FB1705E8B271
:1041C000F0BD70B504460D4600262046FFF735FFCA
:1041D00008B101260AE0280C21680862A8B221680B
:1041E00048622046FFF746FF00B10126304670BD09
:1041F00070B504460D4600262046FFF71EFF08B1A5
:1042000001260AE0280C21688861A8B22168C861EB
:104210002046FFF72FFF00B10126304670BD2DE983
:10422000F04706460F46144698460025AA463046F3
:10423000FDF755F981464C4501D2204600E048463D
:104240000446B8F1000F0AD0002505E039467F1C6E
:104250003046FDF72DF96D1CA542F7D30DE0D6F8D9
:1042600000A0002505E039467F1C3046FDF720F907
:104270006D1CA542F7D3C6F800A02046BDE8F08724
:1042800000B5FDF7E5F94FF0006101EB8021A1F5E4
:104290008050D0F80008A1F58051D1F8041800BD75
:1042A000002303604360C2608160704738B5FDF74A
:1042B000CFF94FF0006101EB8020A0F500640025EC
:1042C00000200090411E114A11605160FEF72EF847
:1042D00000BF0F48C06920F001000D49C86100BF50
:1042E000012500200B49086008468460C5604CF237
:1042F0005030FCF74DFF69460648FDF79BFE10B1B4
:1043000005A000F061FAFDF78FFF38BD2000002006
:10431000002002401410002052756E4170704D6FE5
:104320006465206572617365206572726F72210A1F
:1043300000000000704710B5FEF714FA10BD00B57C
:104340008FB014210AA8FBF778FF28216846FBF7F5
:1043500074FF0120009000040190002002900220D0
:104360000790C10308914FF4E01109916846FEF7E8
:10437000BDFD08B100BFFEE70F200A9002200B90A0
:1043800000200C900E904FF480600D9002210AA83E
:10439000FEF7F0FB08B100BFFEE70FB000BD000064
:1043A0001148006840F001000F4908600846406865
:1043B0000E4908400C494860084600680C4908400E
:1043C000094908600846006820F480200860084613
:1043D000406820F4FE0048604FF41F008860C80366
:1043E0000449086070470000001002400000FFF818
:1043F000FFFFF6FE08ED00E000B5034618786328DD
:104400001ADC5878012817DB58780C2814DC9878C7
:10441000012811DB5978187800F054F8997888420F
:104420000ADBD878182807DA18793C2804DA587992
:104430003C2801DA012000BD0020FCE733B5002450
:104440006846FFF7D9FF08B907203CBD9DF800007A
:1044500000F5FA649DF80100012803D09DF80100E1
:10446000022807D19DF801000C30C0B28DF8010080
:10447000601E84B29DF80100401C00EB4000052244
:1044800090FBF2F09DF802209DF80130022505FB1B
:104490000322104420442146E21704EB927200EB01
:1044A000A200642294FBF2F2801A4FF4C87294FBCB
:1044B000F2F21044072290FBF2F302FB1300C0B2A9
:1044C000C3E7000002460D291AD2DFE801F0190700
:1044D0000F081409150A0B160C170D0000BF00BFBA
:1044E00000BF00BF00BF00BF1F2070470548805CB1
:1044F0001C30C0B2F9E700BF00BF00BF1E20F4E7C8
:104500000020F2E7A48A000810B590B0024600230C
:104510000092516000BF0098006800F04000402801
:1045200004D018465B1C054CA042F4D303488342D8
:1045300002D3002010B010BD0120FBE7FFFF9F0059
:104540002DE9F041044600252068006920F4405020
:10455000E1680843216808612169A068084361692E
:10456000084305432068C06841F20C618843284332
:104570002168C8602068406920F44070A169084340
:10458000216848615F49206888425CD1FEF754FC8D
:1045900000EBC00101EB001061688900B0FBF1F68F
:1045A000FEF74AFC00EBC00101EB001061688900D6
:1045B000B0FBF1F06421B0FBF1F000EBC00101EBC6
:1045C0000010A6EB8000322101EB00106421B0FB4B
:1045D000F1F000F0F006FEF72FFC00EBC00101EB5C
:1045E000001061688900B0FBF1F06421B0FBF1F0CC
:1045F00006EB0016FEF720FC00EBC00101EB0010FB
:1046000061688900B0FBF1F7FEF716FC00EBC00112
:1046100001EB001061688900B0FBF1F06421B0FB90
:10462000F1F000EBC00101EB0010A7EB800032219C
:1046300001EB00106421B0FBF1F000F00F003044FA
:10464000216888605BE0FEF7E7FB00EBC00101EB4F
:10465000001061688900B0FBF1F6FEF7DDFB00EBAE
:10466000C00101EB001061688900B0FBF1F064212A
:10467000B0FBF1F000EBC00101EB0010A6EB8000F5
:10468000322101EB00106421B0FBF1F000F0F006E4
:10469000FEF7C2FB00EBC00101EB0010616889006E
:1046A000B0FBF1F06421B0FBF1F006EB0016FEF771
:1046B000B3FB00EBC00101EB001061688900B0FBA7
:1046C000F1F7FEF7A9FB00EBC00101EB00106168F8
:1046D0008900B0FBF1F06421B0FBF1F000EBC00108
:1046E00001EB0010A7EB8000322101EB00106421E8
:1046F000B0FBF1F000F00F00304421688860BDE8A5
:10470000F08100000038014010B5024803F07EFF40
:1047100010BD00005000002010B50248FDF7B0F9B0
:1047200010BD0000E420002010B5FCF791FF4FF011
:10473000006101EB8020A0F50064FFF7A1FD4FF0C0
:10474000FF3358405940084301D0FFF7AFFDFDF754
:10475000EDFD00BF0D48C06920F001000B49C861A4
:1047600000BF0B490B4A116051604CF25030FCF70E
:104770000FFD084821460CC80320FDF77FFD10B14E
:1047800005A000F021F8FDF74FFD10BD002002400C
:104790007856FFFF200000205570646174654170F9
:1047A000704D6F6465206572617365206572726F0C
:1047B00072210A0000BFFEE710B50248FDF7CAFFEC
:1047C00010BD0000442000200FB4054B10B503A914
:1047D000044A029800F034F810BC5DF814FB0000A5
:1047E00031550008D807002002480068C0F30220B5
:1047F000704700000CED00E010B5002804DB0A074C
:10480000130E054A135406E00A07140E034A00F07B
:104810000F031B1FD45410BD00E400E018ED00E0AE
:1048200002E008C8121F08C1002AFAD17047704779
:10483000002001E001C1121F002AFBD170470000D7
:104840002DE9FF4F8DB00F460546002606E02528CE
:104850000BD0DDE90F1290476D1C761C28780028DC
:10486000F5D111B03046BDE8F08F0024A246A14634
:104870000122EC4900E0044315F8013F203B02FA15
:1048800003F00842F7D128782A2810D06FF02F02C1
:104890002878A0F13001092914D80AEB8A0102EB2B
:1048A000410144F0020400EB010A6D1CF0E701CF66
:1048B0005FEA000A03D544F40054CAF1000A44F048
:1048C00002046D1C28782E2817D115F8010F44F02A
:1048D00004042A280ED06FF02F022878A0F13001AE
:1048E00009290AD809EB890102EB410100EB010912
:1048F0006D1CF2E757F8049B6D1C28786C280FD0CC
:1049000006DC4C2817D068280DD06A2814D104E0A2
:10491000742810D07A280FD10DE044F400140AE076
:1049200044F4801401E044F440146978814202D1D7
:1049300004F580146D1C6D1C2A786E2A1FD00CDCC7
:10494000632A31D004DC002A8BD0582A11D1A3E08D
:10495000642A68D0692A0CD165E0732A2ED004DC61
:104960006F2A73D0702A04D19BE0752A6FD0782A01
:104970006ED01046DDE90F129047761C50E1C4F36B
:104980000250022806D0032809D0042801CF09D0FC
:10499000066045E101CFF117C0E9006140E101CFB8
:1049A00006803DE106703BE117F8040B8DF800002E
:1049B00000208DF80100EB46012003E057F804BB0E
:1049C0004FF0FF3061074FF0000102D40DE008F115
:1049D0000101884649450FDA8045F8DB1BF80810CD
:1049E0000029F4D108E008F1010188468142FADB90
:1049F0001BF808100029F6D1DDE90F23AAEB080007
:104A00008146214600F036F9304400EB080604E008
:104A1000DDE90F121BF8010B9047B8F10108F7D23E
:104A200021464846F7E00A21C4F302534FF0000B39
:104A30000891022B04D001CFC117032B09D00AE043
:104A4000FF1D27F00707F7E8020108E032E01FE04A
:104A500020E000B2C117042B01D140B2C117031EE0
:104A600071F1000307DA4FF0000CD0EB0C006CEB97
:104A700001012D2302E0230504D52B238DF82430DA
:104A8000012303E0E30701D02023F7E7984658E02D
:104A90000A2110E010210EE010204FF0000B0890CA
:104AA0000CE010214FF0000B44F004044FF0080913
:104AB000089103E008214FF0000B0891C4F3025362
:104AC000022B04D001CF0021032B06D006E0FF1DEE
:104AD00027F00707F7E8020103E080B2042B00D1BA
:104AE000C0B24FF0000823072BD5702A07D0DDF89D
:104AF00020C08CF0100C5CEA0B0C05D00EE04023BB
:104B00008DF82430012308E050EA010306D0302359
:104B10008DF824308DF8252002239846DDF820C03A
:104B20008CF0080C5CEA0B0C0BD150EA010301D1AC
:104B3000630706D530238DF824304FF00108A9F122
:104B40000109582A04D038A20B9208AA0A920BE055
:104B50003AA2F9E75B46089AFBF706FB0B9B9B5CC6
:104B60000A9A521E0A92137050EA0102F2D10A9870
:104B7000ADEB000000F1200B600702D524F4803477
:104B800001E04FF00109D94502DDA9EB0B0000E07F
:104B9000002000EB0B0141440890AAEB010AE0035E
:104BA00006D4DDE90F232146504600F063F80644A1
:104BB0004FF0000908E009A911F80900DDE90F121A
:104BC000904709F10109761CC145F4DBE0030CD5DF
:104BD000DDE90F232146504600F04CF8064404E07E
:104BE000DDE90F1230209047761C0899481E089086
:104BF0000029F5DC08E00A980A990078491C0A9116
:104C0000DDE90F129047761CBBF10001ABF1010BFF
:104C1000F1DC21465046DDE90F2300F019F8064487
:104C20006D1C1BE60928010030313233343536372C
:104C300038396162636465660000000030313233E8
:104C40003435363738394142434445460000000088
:104C50002DE9F041044600251E461746880404D479
:104C600005E039462020B0476D1C641EF9D5284662
:104C7000BDE8F0812DE9F041044600251E4690462E
:104C8000C80301D5302700E02027880404D505E0BB
:104C900041463846B0476D1C641EF9D52846BDE82C
:104CA000F08170B504460D46164632462946204628
:104CB00000F001F870BD70B503460C464FF6FF706A
:104CC00000EA13419BB2012A0FD1207803444FF62A
:104CD000F170834200D31B1A19444FF6F1708142E0
:104CE00000D3091A43EA014070BD0CB90120FBE76B
:104CF000102A16D203E014F8016B33441944101E35
:104D0000A2F10102F7D14FF6F170834200D31B1AD2
:104D10004FF6F170B1FBF0F600FB161143EA0140CB
:104D2000E2E743E0A2F5A852B03A40F25B1500BFBB
:104D3000207803441944607803441944A07803445C
:104D40001944E078034419442079034419446079F4
:104D500003441944A07903441944E07903441944F5
:104D6000207A03441944607A03441944A07A034426
:104D70001944E07A03441944207B03441944607BBE
:104D800003441944A07B03441944E07B03441944C1
:104D90001034681E051ECBD14FF6F170B3FBF0F650
:104DA00000FB1633B1FBF0F600FB161141F2B050D8
:104DB0008242B7D2002A47D031E0103A207803442B
:104DC0001944607803441944A07803441944E078F6
:104DD0000344194420790344194460790344194475
:104DE000A07903441944E07903441944207A034428
:104DF0001944607A03441944A07A03441944E07AC0
:104E000003441944207B03441944607B0344194440
:104E1000A07B03441944E07B034419441034102A56
:104E2000CBD203E014F8016B33441944101EA2F1F5
:104E30000102F7D14FF6F170B3FBF0F600FB163329
:104E4000B1FBF0F600FB161143EA01404CE700000D
:104E500010B503F093F903F0ABFD0B4803F018FB1A
:104E60000A4803F03BFA0A4803F038FA094803F00D
:104E700035FA02F07DFEFCF73FFB002003F08EF8D0
:104E8000054802F049FF10BD500000202800002016
:104E900030000020380000208C0000202DE9F04F69
:104EA000A3B080460D469146002021902290002418
:104EB0000027824620900026FCF7CAFB4FF00061D5
:104EC00001EB8020A0F5E43BB9F1080F7DD300BFD2
:104ED0004FE0285DFE2819D0641C04E0285DFE2800
:104EE00000D102E0641C4C45F8D300BFA9EB0400DC
:104EF000082800D33DE002208DF884002294DDE9EB
:104F00002101C8E9000123B0BDE8F08FA01C2F5C8F
:104F1000601C285C00EB072740F2B450874201D8A0
:104F2000082F01D2641C24E0A9EB0400B8420ED281
:104F300024B900208DF88400229003E002208DF82F
:104F400084002294DDE92101C8E90001DBE7E019D2
:104F5000401E285CBE280AD1F91E2A19501CFCF7F5
:104F60007DFBE119891E695C884200D102E0641C66
:104F700000BFAEE700BF01208DF88400601D15F86A
:104F800000A0201D285C40EA0A2AE01D285CDC49BC
:104F90008882A01D285C40EA0A2088820846C08AD0
:104FA000504505D00846C08A4FF6FF71884270D13F
:104FB000E01C285CA3286DD00DDC03286BD005DC39
:104FC000012815D0022867D167E092E1A1287CD0A2
:104FD000A228F8D1FCE0B12878D004DCA42876D04F
:104FE000A528F0D128E1B22872D0C128EBD164E124
:104FF0000120C449087004F10900285CC2490880F6
:1050000004F10800285C097840EA0120BE490880C4
:10501000291901F10C00FBF78DF9BC490860291929
:1050200001F11000FBF77FF9B9490860291901F176
:105030001200FBF77FF9B7490860B7A0FFF7C4FB80
:10504000281900F10A01182201A8FBF7DDF8B14880
:105050000368AF480268AD480168B5A0FFF7B4FB2C
:1050600001A8FCF714F9A94801685846FCF7C8F8EC
:10507000642107A8FBF736FC064636B1334607AA7B
:105080004FF4A061B24800F091F9B2A0FFF79CFB89
:1050900027E127E1ADE04CE01DE1022099490870CD
:1050A000291901F10800FBF73EF9AC4908800846D0
:1050B0000188491CAAA0FFF787FB0A2F2AD9A74815
:1050C000008893490968484303E073E0C4E0A0E026
:1050D000E2E0B0F5D03F1DD2A7F10C0020902A19D4
:1050E00002F10A019D4A1288894B1B6802FB03B03A
:1050F000209AFCF723F90022642107A8FBF732FC71
:105100000646AEB1334607AA4FF4A061904800F0BE
:105110004DF90DE00122642107A8FBF723FC0646A8
:1051200036B1334607AA4FF4A061894800F03EF932
:10513000D7E00A20FCF76AFF03207249087089A0B3
:10514000FFF742FB642107A8FBF70EFB064636B1CA
:10515000334607AA4FF4A0617D4800F027F9FFF716
:10516000E3FAFFF78DF880B20146009081A0FFF7C7
:105170002BFB6420FCF74AFF00BF00BF00BF00BF4D
:1051800000BFBFF34F8F00BF00BF00BF7E48006865
:1051900000F4E0607D490843001D7B49086000BFC2
:1051A00000BF00BFBFF34F8F00BF00BF00BF00BFF5
:1051B00000BFFDE7642107A8FBF766FC064636B191
:1051C000334607AA4FF4A061614800F0EFF888E089
:1051D0002819FBF7B3FC642107A8FBF7F7FC064688
:1051E00036B1334607AA4FF4A061594800F0DEF803
:1051F00077E000F061FB642107A8FBF7A7FC0646F7
:1052000036B1334607AA4FF4A061514800F0CEF8FA
:1052100067E0642107A8FBF7B7F9064636B13346C5
:1052200007AA4FF4A0614A4800F0C0F80A20FCF732
:10523000EDFE03F072FA54E0642107A8FBF7E4FBEB
:10524000064636B1334607AA4FF4A061404800F045
:10525000ADF800F04BFA44E0642107A8FBF7D4F95D
:105260000646C6B12648C08A4FF6FF7188420BD069
:105270002349C98A090A01EB81014A002049897D35
:1052800002EB4100FCF7C2FE334607AA4FF4A061CF
:105290002F4800F08BF824E02819FBF733F964213C
:1052A00007A8FBF7EFF8064636B1334607AA4FF4D6
:1052B000A061274800F07AF813E0642107A8FBF703
:1052C00075F8064636B1334607AA4FF4A061204868
:1052D00000F06CF805E0E01C295C2DA0FFF774FAE3
:1052E00000BF00BF38192290DDE92101C8E90001A3
:1052F00009E6DDE92101C8E9000100BF03E600007D
:10530000FC0F0020C6030020B4030020B8030020D7
:10531000BC030020C00300200D0A43414E5F4F54E0
:10532000415F53746172742E2E2E0D0A000000002E
:1053300042696E5B25645D2C205375625B25645D5C
:105340002C2043524333325B253038585D0D0A0020
:105350008C0000205570646174653A00C40300201D
:1053600025642C000D0A43414E5F4F54415F456E4A
:10537000640D0A004941505F464C41473A2030785D
:105380002558200A0D0000000CED00E00000FA0591
:1053900074686520636D645B25645D206973206EAD
:1053A0006F20737570706F7274210A002DE9F047D9
:1053B00088B081468A4616461D4600240027A0462E
:1053C000B9F1000F01D005B11EB9002008B0BDE849
:1053D000F087EF0805F00708CDF800A00020029044
:1053E0000390002418E00820049006EBC400016834
:1053F0000691406807906946484602F077FD08B973
:10540000E000E3E70A20B4FBF0F100FB114010B923
:105410000A20FCF7FBFD641CBC42E4D3B8F1000F8A
:105420000ED0CDF8108006EBC701424606A8FAF769
:10543000EBFE6946484602F059FD08B9F800C5E799
:105440002846C3E770B504460D461646324629463F
:10545000204600F001F870BD10B5034609B90020E0
:1054600010BDDB4341E011F8010B5840C0B2284C9D
:1054700054F8200080EA132311F8010B5840C0B201
:1054800054F8200080EA132311F8010B5840C0B2F1
:1054900054F8200080EA132311F8010B5840C0B2E1
:1054A00054F8200080EA132311F8010B5840C0B2D1
:1054B00054F8200080EA132311F8010B5840C0B2C1
:1054C00054F8200080EA132311F8010B5840C0B2B1
:1054D00054F8200080EA132311F8010B5840C0B2A1
:1054E00054F8200080EA1323083A082ABBD262B19C
:1054F00000BF11F8010B5840C0B2054C54F8200011
:1055000080EA1323501E021EF3D1D843A8E70000FF
:10551000F894000804490165092181650349416542
:105520000521C16570470000268B000826930008FE
:1055300013B50C4601226946024803F0C6F80098EC
:105540001CBD00005000002010B5002821D0114BD8
:105550000022001F196803E0814203D80A46496807
:105560000029F9D152B11368841A9C4204D1006811
:1055700018441060104602E0506000E0186039B135
:1055800002680B1A934203D10B681A4402604968FF
:10559000416010BDDC07002038B504464449601A5C
:1055A0008C4241D009DC4348204480B1B0F5806F83
:1055B0001CD0B0F5006F74D127E0B0F5806F42D0F9
:1055C000B0F5006F4ED0B0F5406F6AD159E000BF22
:1055D0003948806940F0040037498861084680698D
:1055E00000F00400009000BF00BF5EE000BF324842
:1055F000806940F00800304988610846806900F001
:105600000800009000BF00BF4FE000BF2A4880693B
:1056100040F01000284988610846806900F01000B9
:10562000009000BF00BF40E000BF2348806940F009
:105630002000214988610846806900F02000009020
:1056400000BF00BF31E000BF1B48806940F0400050
:10565000194988610846806900F04000009000BF49
:1056600000BF22E000BF1448806940F0800012496A
:1056700088610846806900F08000009000BF00BF8C
:1056800013E000BF0C48806940F480700A498861CB
:105690000846806900F48070009000BF00BF04E0FD
:1056A000FFE706A0FFF790F800BF00BF38BD00007D
:1056B0000014014000F8FEBF001002406770696FDF
:1056C00020636C6B206572726F72210A000000000B
:1056D00000214179027942EA0121034AD182017A0B
:1056E000C27942EA01217047FC0F002010B5182151
:1056F0000B48FAF7A2FD0A48801CFBF78FFF41F226
:105700003420074908800120C8810882488200208F
:1057100088824FF6FF70C88200F0CEF810BD0000FE
:10572000FC0F002010B5FBF793FF4FF0006101EB79
:105730008020A0F5805420880C4908800846008805
:1057400041F23421884201D0FFF7D0FFFBF780FF00
:105750004FF0006101EB8020A0F58054182203492E
:105760002046FBF789FD183410BD0000FC0F002017
:105770002DE9F04104460F4600251D26B74202D20E
:105780000020BDE8F081FE2228466D1C22542846E8
:105790006D1C2654C6F3072228466D1C22540E2287
:1057A00028466D1C22544349C88AC11700EB116179
:1057B0000912A0EB0121CBB229466D1C63543D496F
:1057C000C88AC11700EB1161C1F3072329466D1C7C
:1057D0006354002228466D1C225428466D1C225416
:1057E00028466D1C22543348827828466D1C22546A
:1057F00030484088020A28466D1C22542D48027900
:1058000028466D1C22542B488088020A28466D1CAD
:1058100022542848827928466D1C22542548C08885
:10582000020A28466D1C22542248027A28466D1C22
:10583000225420480089020A28466D1C22541D4823
:10584000827A28466D1C22541A484089020A28464A
:105850006D1C22541748027B28466D1C22541548A3
:105860008089020A28466D1C2254002228466D1C9D
:10587000225428466D1C22540E48827C28466D1CFA
:105880002254002228466D1C225428466D1C2254A6
:105890000848827B28466D1C2254F11E601CFBF7D1
:1058A000DDFE29466D1C6054BE2228466D1C225424
:1058B000284666E7FC0F002038B5FBF7C9FE4FF01D
:1058C000006101EB8020A0F58054002500200090AD
:1058D000FCF72CFD00BF1148C06920F001000F4902
:1058E000C86100BF012500200D490860084684609A
:1058F000C5604CF25030FBF74BFC69460848FCF79A
:1059000099FB10B107A0FEF75FFF18220949204656
:10591000FBF714FD1834FCF787FC38BD002002406B
:10592000241000206572617365206572726F720ABF
:1059300000000000FC0F00202DE9F34F8BB007465C
:10594000384601F0F2FA28B9F86818B1386830B969
:10595000786820B16FF001000DB0BDE8F08FFC69F0
:10596000A08843F63F71884201D1401CA08000BF4F
:10597000F8680A9038690990D7F80090D7F8048041
:10598000E56B266C00BFCDF82080DDF824B0002048
:10599000039000BFA088A0F57C503438202881F007
:1059A0002381DFE810F02000BA0004013E017601F7
:1059B000B501FE014502BE02FB0223033E0346037E
:1059C0009A03CF03D303FC033A0493040F06130690
:1059D000E8061D07F20723087E088F08EF0816095E
:1059E00019091D092209E06820B94FF47D50A080F3
:1059F00001F0FEB800BF0DE000BFB8F1000F01D10B
:105A000001F0F8B8A8F1010819F8010BB0400544FD
:105A1000083600BF102EEFD300BF207B00F002003D
:105A200018B348F61F3085421FD1A06A08B90F206D
:105A3000A062002211461046FFF704FDE06100BF9E
:105A4000E8B28DF80800280A8DF80900022202A9A0
:105A5000E069FFF7F7FCE06100BF00BF002500260A
:105A600000BF43F63570A080C2E700206061606A25
:105A700018B14FF0FF30616A0863207B00F001002D
:105A800048B12806000C00EB15201F21B0FBF1F2F5
:105A900001FB120028B1FDA0B86143F65170A0804F
:105AA000A6E705F00F00082805D0FEA0B86143F670
:105AB0005170A0809CE700BF2D09361F00BF05F084
:105AC0000F0008300490A06A08B90498A0620498F6
:105AD0000F2803D8A16A0498814205D2F8A0B861C2
